{
  "contractName": "CompanyListing",
  "abi": [
    {
      "constant": true,
      "inputs": [
        {
          "name": "",
          "type": "uint256"
        }
      ],
      "name": "bankNames",
      "outputs": [
        {
          "name": "",
          "type": "string"
        }
      ],
      "payable": false,
      "stateMutability": "view",
      "type": "function",
      "signature": "0x4ecaef25"
    },
    {
      "constant": true,
      "inputs": [
        {
          "name": "",
          "type": "uint256"
        }
      ],
      "name": "bankAddresses",
      "outputs": [
        {
          "name": "",
          "type": "address"
        }
      ],
      "payable": false,
      "stateMutability": "view",
      "type": "function",
      "signature": "0x74bccc3c"
    },
    {
      "constant": true,
      "inputs": [
        {
          "name": "",
          "type": "address"
        }
      ],
      "name": "banks",
      "outputs": [
        {
          "name": "bankId",
          "type": "uint256"
        },
        {
          "name": "bankAddress",
          "type": "address"
        },
        {
          "name": "bankName",
          "type": "string"
        }
      ],
      "payable": false,
      "stateMutability": "view",
      "type": "function",
      "signature": "0x80c3b8c2"
    },
    {
      "constant": true,
      "inputs": [],
      "name": "listingCount",
      "outputs": [
        {
          "name": "",
          "type": "uint256"
        }
      ],
      "payable": false,
      "stateMutability": "view",
      "type": "function",
      "signature": "0xa9b07c26"
    },
    {
      "constant": true,
      "inputs": [
        {
          "name": "",
          "type": "uint256"
        }
      ],
      "name": "listings",
      "outputs": [
        {
          "name": "listingId",
          "type": "uint256"
        },
        {
          "name": "approved",
          "type": "bool"
        },
        {
          "name": "dbApproved",
          "type": "bool"
        },
        {
          "name": "ecbApproved",
          "type": "bool"
        },
        {
          "name": "nlApproved",
          "type": "bool"
        },
        {
          "name": "companyName",
          "type": "string"
        },
        {
          "name": "companyMailingAddress",
          "type": "string"
        },
        {
          "name": "country",
          "type": "string"
        },
        {
          "name": "earnings",
          "type": "uint256"
        },
        {
          "name": "netIncome",
          "type": "uint256"
        },
        {
          "name": "stockPrice",
          "type": "uint256"
        },
        {
          "name": "numShares",
          "type": "uint256"
        }
      ],
      "payable": false,
      "stateMutability": "view",
      "type": "function",
      "signature": "0xde74e57b"
    },
    {
      "constant": true,
      "inputs": [],
      "name": "bankCount",
      "outputs": [
        {
          "name": "",
          "type": "uint256"
        }
      ],
      "payable": false,
      "stateMutability": "view",
      "type": "function",
      "signature": "0xf879eb57"
    },
    {
      "inputs": [],
      "payable": false,
      "stateMutability": "nonpayable",
      "type": "constructor",
      "signature": "constructor"
    },
    {
      "anonymous": false,
      "inputs": [
        {
          "indexed": false,
          "name": "companyId",
          "type": "uint256"
        },
        {
          "indexed": false,
          "name": "companyName",
          "type": "string"
        },
        {
          "indexed": false,
          "name": "completed",
          "type": "bool"
        },
        {
          "indexed": false,
          "name": "bankName",
          "type": "string"
        },
        {
          "indexed": false,
          "name": "bankAddress",
          "type": "address"
        }
      ],
      "name": "bankApprovalComplete",
      "type": "event",
      "signature": "0xaa8cb4841c2a28171d394d115010901714654dc08130642c579172f443b5ff56"
    },
    {
      "anonymous": false,
      "inputs": [
        {
          "indexed": false,
          "name": "companyId",
          "type": "uint256"
        },
        {
          "indexed": false,
          "name": "companyName",
          "type": "string"
        },
        {
          "indexed": false,
          "name": "completed",
          "type": "bool"
        }
      ],
      "name": "listingApprovalComplete",
      "type": "event",
      "signature": "0x371a4af84e37754bf38ab3860405f713a95d61268802ee7c3a0ff715d9c352d6"
    },
    {
      "anonymous": false,
      "inputs": [
        {
          "indexed": false,
          "name": "companyId",
          "type": "uint256"
        },
        {
          "indexed": false,
          "name": "companyName",
          "type": "string"
        },
        {
          "indexed": false,
          "name": "bankUnderwriter",
          "type": "string"
        }
      ],
      "name": "listingAddedComplete",
      "type": "event",
      "signature": "0x15ade30a3c1a89726d6e9675a23e800504dadf432ba54645780836510518765b"
    },
    {
      "constant": false,
      "inputs": [
        {
          "name": "_companyName",
          "type": "string"
        },
        {
          "name": "_companyMailingAddress",
          "type": "string"
        },
        {
          "name": "_country",
          "type": "string"
        },
        {
          "name": "_earnings",
          "type": "int256"
        },
        {
          "name": "_netIncome",
          "type": "int256"
        },
        {
          "name": "_stockPrice",
          "type": "int256"
        },
        {
          "name": "_numShares",
          "type": "int256"
        }
      ],
      "name": "createListing",
      "outputs": [],
      "payable": false,
      "stateMutability": "nonpayable",
      "type": "function",
      "signature": "0x4168b3c5"
    },
    {
      "constant": false,
      "inputs": [
        {
          "name": "_companyId",
          "type": "uint256"
        }
      ],
      "name": "approveListing",
      "outputs": [],
      "payable": false,
      "stateMutability": "nonpayable",
      "type": "function",
      "signature": "0xbfe2760a"
    },
    {
      "constant": false,
      "inputs": [],
      "name": "isVerified",
      "outputs": [
        {
          "name": "",
          "type": "bool"
        }
      ],
      "payable": false,
      "stateMutability": "nonpayable",
      "type": "function",
      "signature": "0x80007e83"
    }
  ],
  "bytecode": "0x600080805560015560e06040527332bae766f067e46ccf08560c47ccf25c4c214065608090815273935bb1908af1e5c3cece5248336277873e10615960a05273989e12aa643cca35156e47a38c6ae95c6c4c9c2d60c05262000066906004906003620009d2565b506040805160a081018252600d606082019081527f44657574736368652042616e6b000000000000000000000000000000000000006080830152815281518083018352601581527f4575726f7065616e2043656e7472616c2042616e6b00000000000000000000006020828101919091528083019190915282518084018452601781527f4e6f72646465757473636865204c616e64657362616e6b00000000000000000091810191909152918101919091526200012890600590600362000a3c565b503480156200013657600080fd5b5060005b600454811015620002bc576000805460010190819055604080516060810190915290815260048054602083019190849081106200017357fe5b60009182526020918290200154600160a060020a03168252600580549290910191849081106200019f57fe5b600091825260209182902001805460408051601f6002600019610100600187161502019094169390930492830185900485028101850190915281815292830182828015620002315780601f10620002055761010080835404028352916020019162000231565b820191906000526020600020905b8154815290600101906020018083116200021357829003601f168201915b5050505050815250600360006004848154811015156200024d57fe5b600091825260208083209190910154600160a060020a0390811684528382019490945260409283019091208451815584820151600182018054600160a060020a0319169190951617909355908301518051620002b0926002850192019062000a9c565b5050506001016200013a565b50620003ac6040805190810160405280600681526020017f476f6f676c650000000000000000000000000000000000000000000000000000815250606060405190810160405280603481526020017f3136303020416d70686974686561747265205061726b7761793b204d6f756e7481526020017f61696e20566965772c2043616c69666f726e69610000000000000000000000008152506040805190810160405280600d81526020017f556e697465642053746174657300000000000000000000000000000000000000815250624c4b40623d0900608961138862000632640100000000026401000000009004565b6200049b6040805190810160405280600681526020017f416d617a6f6e0000000000000000000000000000000000000000000000000000815250606060405190810160405280602881526020017f496e632034313020546572727920417665204e3b2053656174746c652c20576181526020017f7368696e67746f6e0000000000000000000000000000000000000000000000008152506040805190810160405280600d81526020017f556e697465642053746174657300000000000000000000000000000000000000815250627d21066241a0b06058612ee062000632640100000000026401000000009004565b620005646040805190810160405280600981526020017f4d6963726f736f667400000000000000000000000000000000000000000000008152506040805190810160405280601f81526020017f3135303130204e4520333674682c2053742e3b205265646d6f6e642c205741008152506040805190810160405280600d81526020017f556e69746564205374617465730000000000000000000000000000000000000081525063056059866223addf60b6614e2062000632640100000000026401000000009004565b6200062c6040805190810160405280600881526020017f46616365626f6f6b0000000000000000000000000000000000000000000000008152506040805190810160405280601881526020017f31204861636b6572205761793b204d656e6c6f205061726b00000000000000008152506040805190810160405280600d81526020017f556e697465642053746174657300000000000000000000000000000000000000815250620b0c226201022d60cb61271062000632640100000000026401000000009004565b62000bd4565b62000645640100000000620009b0810204565b15156001146200065457600080fd5b865187908790879015156200066857600080fd5b815115156200067657600080fd5b805115156200068457600080fd5b600087136200069257600080fd5b60008613620006a057600080fd5b60008513620006ae57600080fd5b60008413620006bc57600080fd5b6001600081548092919060010191905055506101806040519081016040528060015481526020016000151581526020016000151581526020016000151581526020016000151581526020018b81526020018a8152602001898152602001888152602001878152602001868152602001858152506002600060015481526020019081526020016000206000820151816000015560208201518160010160006101000a81548160ff02191690831515021790555060408201518160010160016101000a81548160ff02191690831515021790555060608201518160010160026101000a81548160ff02191690831515021790555060808201518160010160036101000a81548160ff02191690831515021790555060a0820151816002019080519060200190620007ec92919062000a9c565b5060c082015180516200080a91600384019160209091019062000a9c565b5060e082015180516200082891600484019160209091019062000a9c565b5061010082015181600501556101208201518160060155610140820151816007015561016082015181600801559050507f15ade30a3c1a89726d6e9675a23e800504dadf432ba54645780836510518765b6001548b6003600033600160a060020a0316600160a060020a03168152602001908152602001600020600201604051808481526020018060200180602001838103835285818151815260200191508051906020019080838360005b83811015620008ee578181015183820152602001620008d4565b50505050905090810190601f1680156200091c5780820380516001836020036101000a031916815260200191505b50838103825284546002600019610100600184161502019091160480825260209091019085908015620009935780601f10620009675761010080835404028352916020019162000993565b820191906000526020600020905b8154815290600101906020018083116200097557829003601f168201915b50509550505050505060405180910390a150505050505050505050565b33600090815260036020526040812054819015620009cc575060015b90505b90565b82805482825590600052602060002090810192821562000a2a579160200282015b8281111562000a2a5782518254600160a060020a031916600160a060020a03909116178255602090920191600190910190620009f3565b5062000a3892915062000b1d565b5090565b82805482825590600052602060002090810192821562000a8e579160200282015b8281111562000a8e578251805162000a7d91849160209091019062000a9c565b509160200191906001019062000a5d565b5062000a3892915062000b44565b828054600181600116156101000203166002900490600052602060002090601f016020900481019282601f1062000adf57805160ff191683800117855562000b0f565b8280016001018555821562000b0f579182015b8281111562000b0f57825182559160200191906001019062000af2565b5062000a3892915062000b6c565b620009cf91905b8082111562000a38578054600160a060020a031916815560010162000b24565b620009cf91905b8082111562000a3857600062000b62828262000b89565b5060010162000b4b565b620009cf91905b8082111562000a38576000815560010162000b73565b50805460018160011615610100020316600290046000825580601f1062000bb1575062000bd1565b601f01602090049060005260206000209081019062000bd1919062000b6c565b50565b6114e28062000be46000396000f3fe6080604052600436106100985763ffffffff7c01000000000000000000000000000000000000000000000000000000006000350416634168b3c5811461009d5780634ecaef251461027157806374bccc3c1461031057806380007e831461035657806380c3b8c21461037f578063a9b07c261461044a578063bfe2760a14610471578063de74e57b1461049b578063f879eb5714610658575b600080fd5b3480156100a957600080fd5b5061026f600480360360e08110156100c057600080fd5b8101906020810181356401000000008111156100db57600080fd5b8201836020820111156100ed57600080fd5b8035906020019184600183028401116401000000008311171561010f57600080fd5b91908080601f016020809104026020016040519081016040528093929190818152602001838380828437600092019190915250929594936020810193503591505064010000000081111561016257600080fd5b82018360208201111561017457600080fd5b8035906020019184600183028401116401000000008311171561019657600080fd5b91908080601f01602080910402602001604051908101604052809392919081815260200183838082843760009201919091525092959493602081019350359150506401000000008111156101e957600080fd5b8201836020820111156101fb57600080fd5b8035906020019184600183028401116401000000008311171561021d57600080fd5b91908080601f016020809104026020016040519081016040528093929190818152602001838380828437600092019190915250929550508235935050506020810135906040810135906060013561066d565b005b34801561027d57600080fd5b5061029b6004803603602081101561029457600080fd5b50356109cb565b6040805160208082528351818301528351919283929083019185019080838360005b838110156102d55781810151838201526020016102bd565b50505050905090810190601f1680156103025780820380516001836020036101000a031916815260200191505b509250505060405180910390f35b34801561031c57600080fd5b5061033a6004803603602081101561033357600080fd5b5035610a72565b60408051600160a060020a039092168252519081900360200190f35b34801561036257600080fd5b5061036b610a9a565b604080519115158252519081900360200190f35b34801561038b57600080fd5b506103b2600480360360208110156103a257600080fd5b5035600160a060020a0316610abb565b6040518084815260200183600160a060020a0316600160a060020a0316815260200180602001828103825283818151815260200191508051906020019080838360005b8381101561040d5781810151838201526020016103f5565b50505050905090810190601f16801561043a5780820380516001836020036101000a031916815260200191505b5094505050505060405180910390f35b34801561045657600080fd5b5061045f610b71565b60408051918252519081900360200190f35b34801561047d57600080fd5b5061026f6004803603602081101561049457600080fd5b5035610b77565b3480156104a757600080fd5b506104c5600480360360208110156104be57600080fd5b50356111ab565b604051808d81526020018c1515151581526020018b1515151581526020018a1515151581526020018915151515815260200180602001806020018060200188815260200187815260200186815260200185815260200184810384528b818151815260200191508051906020019080838360005b83811015610550578181015183820152602001610538565b50505050905090810190601f16801561057d5780820380516001836020036101000a031916815260200191505b5084810383528a5181528a516020918201918c019080838360005b838110156105b0578181015183820152602001610598565b50505050905090810190601f1680156105dd5780820380516001836020036101000a031916815260200191505b5084810382528951815289516020918201918b019080838360005b838110156106105781810151838201526020016105f8565b50505050905090810190601f16801561063d5780820380516001836020036101000a031916815260200191505b509f5050505050505050505050505050505060405180910390f35b34801561066457600080fd5b5061045f6113ae565b610675610a9a565b151560011461068357600080fd5b8651879087908790151561069657600080fd5b815115156106a357600080fd5b805115156106b057600080fd5b600087136106bd57600080fd5b600086136106ca57600080fd5b600085136106d757600080fd5b600084136106e457600080fd5b6001600081548092919060010191905055506101806040519081016040528060015481526020016000151581526020016000151581526020016000151581526020016000151581526020018b81526020018a8152602001898152602001888152602001878152602001868152602001858152506002600060015481526020019081526020016000206000820151816000015560208201518160010160006101000a81548160ff02191690831515021790555060408201518160010160016101000a81548160ff02191690831515021790555060608201518160010160026101000a81548160ff02191690831515021790555060808201518160010160036101000a81548160ff02191690831515021790555060a08201518160020190805190602001906108129291906113b4565b5060c0820151805161082e9160038401916020909101906113b4565b5060e0820151805161084a9160048401916020909101906113b4565b5061010082015181600501556101208201518160060155610140820151816007015561016082015181600801559050507f15ade30a3c1a89726d6e9675a23e800504dadf432ba54645780836510518765b6001548b6003600033600160a060020a0316600160a060020a03168152602001908152602001600020600201604051808481526020018060200180602001838103835285818151815260200191508051906020019080838360005b8381101561090e5781810151838201526020016108f6565b50505050905090810190601f16801561093b5780820380516001836020036101000a031916815260200191505b508381038252845460026000196101006001841615020190911604808252602090910190859080156109ae5780601f10610983576101008083540402835291602001916109ae565b820191906000526020600020905b81548152906001019060200180831161099157829003601f168201915b50509550505050505060405180910390a150505050505050505050565b60058054829081106109d957fe5b600091825260209182902001805460408051601f6002600019610100600187161502019094169390930492830185900485028101850190915281815293509091830182828015610a6a5780601f10610a3f57610100808354040283529160200191610a6a565b820191906000526020600020905b815481529060010190602001808311610a4d57829003601f168201915b505050505081565b6004805482908110610a8057fe5b600091825260209091200154600160a060020a0316905081565b33600090815260036020526040812054819015610ab5575060015b90505b90565b60036020908152600091825260409182902080546001808301546002808501805488516101009582161595909502600019011691909104601f81018790048702840187019097528683529295600160a060020a0390911694919291830182828015610b675780601f10610b3c57610100808354040283529160200191610b67565b820191906000526020600020905b815481529060010190602001808311610b4a57829003601f168201915b5050505050905083565b60015481565b610b7f610a9a565b1515600114610b8d57600080fd5b610b95611432565b6000828152600260208181526040928390208351610180810185528154815260018083015460ff80821615158487015261010080830482161515858a01526201000083048216151560608601526301000000909204161515608084015283860180548851938116159092026000190190911695909504601f81018590048502820185019096528581529094919360a086019391929091830182828015610c7c5780601f10610c5157610100808354040283529160200191610c7c565b820191906000526020600020905b815481529060010190602001808311610c5f57829003601f168201915b505050918352505060038201805460408051602060026001851615610100026000190190941693909304601f8101849004840282018401909252818152938201939291830182828015610d105780601f10610ce557610100808354040283529160200191610d10565b820191906000526020600020905b815481529060010190602001808311610cf357829003601f168201915b505050918352505060048201805460408051602060026001851615610100026000190190941693909304601f8101849004840282018401909252818152938201939291830182828015610da45780601f10610d7957610100808354040283529160200191610da4565b820191906000526020600020905b815481529060010190602001808311610d8757829003601f168201915b50505050508152602001600582015481526020016006820154815260200160078201548152602001600882015481525050905060046000815481101515610de757fe5b600091825260209091200154600160a060020a0316331415610e0f5760016040820152610e4e565b600480546001908110610e1e57fe5b600091825260209091200154600160a060020a0316331415610e465760016060820152610e4e565b600160808201525b604081015115156001148015610e6a5750606081015115156001145b8015610e7c5750608081015115156001145b15610f3b576001602080830182905260a083015160408051868152908101849052606081840181815283519183019190915282517f371a4af84e37754bf38ab3860405f713a95d61268802ee7c3a0ff715d9c352d695889590939291608084019186019080838360005b83811015610efe578181015183820152602001610ee6565b50505050905090810190601f168015610f2b5780820380516001836020036101000a031916815260200191505b5094505050505060405180910390a15b6000828152600260208181526040928390208451815584820151600182018054958701516060880151608089015160ff199098169315159390931761ff001916610100911515919091021762ff0000191662010000921515929092029190911763ff00000019166301000000951515959095029490941790935560a08401518051859493610fce939085019201906113b4565b5060c08201518051610fea9160038401916020909101906113b4565b5060e082015180516110069160048401916020909101906113b4565b5061010082015181600501556101208201518160060155610140820151816007015561016082015181600801559050507faa8cb4841c2a28171d394d115010901714654dc08130642c579172f443b5ff56828260a0015183604001516003600033600160a060020a0316600160a060020a03168152602001908152602001600020600201336040518086815260200180602001851515151581526020018060200184600160a060020a0316600160a060020a03168152602001838103835287818151815260200191508051906020019080838360005b838110156110f45781810151838201526020016110dc565b50505050905090810190601f1680156111215780820380516001836020036101000a031916815260200191505b508381038252855460026000196101006001841615020190911604808252602090910190869080156111945780601f1061116957610100808354040283529160200191611194565b820191906000526020600020905b81548152906001019060200180831161117757829003601f168201915b505097505050505050505060405180910390a15050565b6002602081815260009283526040928390208054600180830154838601805488516101009482161585026000190190911697909704601f8101879004870288018701909852878752929660ff80831697938304811696620100008404821696630100000090940490911694929392919083018282801561126c5780601f106112415761010080835404028352916020019161126c565b820191906000526020600020905b81548152906001019060200180831161124f57829003601f168201915b5050505060038301805460408051602060026001851615610100026000190190941693909304601f81018490048402820184019092528181529495949350908301828280156112fc5780601f106112d1576101008083540402835291602001916112fc565b820191906000526020600020905b8154815290600101906020018083116112df57829003601f168201915b5050505060048301805460408051602060026001851615610100026000190190941693909304601f810184900484028201840190925281815294959493509083018282801561138c5780601f106113615761010080835404028352916020019161138c565b820191906000526020600020905b81548152906001019060200180831161136f57829003601f168201915b505050505090806005015490806006015490806007015490806008015490508c565b60005481565b828054600181600116156101000203166002900490600052602060002090601f016020900481019282601f106113f557805160ff1916838001178555611422565b82800160010185558215611422579182015b82811115611422578251825591602001919060010190611407565b5061142e92915061149c565b5090565b6101806040519081016040528060008152602001600015158152602001600015158152602001600015158152602001600015158152602001606081526020016060815260200160608152602001600081526020016000815260200160008152602001600081525090565b610ab891905b8082111561142e57600081556001016114a256fea165627a7a72305820eb19ddc354ba280a2612c4c5bde685062fc931da4d418a764133dd6d597a1a0f0029",
  "source": "pragma solidity ^0.5.0;\n\n/*\n\tThe purpose of this contract is to automate the approval process of company listing for a stock exchange.\n\tCreated on 2/14/2020 by Henry Vuong\n\n\tMade for the WHU course Intro to Blockchain\n\n\tRun using the Truffle framework, Ganache, and MetaMask\n*/\n\ncontract CompanyListing {\n\t// indexes for mappings\n\tuint public bankCount = 0;\n\tuint public listingCount = 0;\n\tmapping(uint => Listing) public listings;\n\tmapping(address => Bank) public banks;\n\n\t// addresses and names of banks\n\taddress[] public bankAddresses = [0x32bAe766f067E46ccF08560C47cCf25C4C214065,\n\t\t\t\t\t\t\t\t \t 0x935Bb1908AF1E5c3CEcE5248336277873E106159,\n\t\t\t\t\t\t\t\t \t 0x989e12AA643CcA35156E47A38C6Ae95c6c4c9c2d];\n\tstring[] public bankNames = [\"Deutsche Bank\", \"European Central Bank\", \"Norddeutsche Landesbank\"];\n\n\tstruct Bank {\n\t\tuint bankId;\n\t\taddress bankAddress;\n\t\tstring bankName;\n\t}\n\n\t// represents a company listing\n\tstruct Listing {\n\t\tuint listingId;\n\t\tbool approved;\n\t\tbool dbApproved;\n\t\tbool ecbApproved;\n\t\tbool nlApproved;\n\n\t\t// basic company information\n\t\tstring companyName;\n\t\tstring companyMailingAddress;\n\t\tstring country;\n\n\t\t// basic company financials\n\t\tuint earnings;\n\t\tuint netIncome;\n\n\t\t// basic IPO information\n\t\tuint stockPrice;\n\t\tuint numShares;\n\t}\n\n\tevent bankApprovalComplete(\n\t    uint companyId,\n\t    string companyName,\n\t    bool completed,\n\t    string bankName,\n\t    address bankAddress\n  \t);\n\n  \tevent listingApprovalComplete(\n  \t\tuint companyId,\n\t    string companyName,\n\t    bool completed\n  \t);\n\n  \tevent listingAddedComplete(\n  \t\tuint companyId,\n\t    string companyName,\n\t    string bankUnderwriter\n  \t);\n\n\tconstructor() public {\n\t\t// set bank mapping\n\t\tfor (uint i = 0; i < bankAddresses.length; i++) {\n\t\t\tbankCount ++;\n\t\t\tbanks[bankAddresses[i]] = Bank(bankCount, bankAddresses[i], bankNames[i]);\n\t\t}\n\n\t\t// bootstrap with seed data\n\t\tcreateListing(\"Google\", \"1600 Amphitheatre Parkway; Mountain View, California\", \"United States\", 5000000, 4000000, 137, 5000);\n\t\tcreateListing(\"Amazon\", \"Inc 410 Terry Ave N; Seattle, Washington\", \"United States\", 8200454, 4300976, 88, 12000);\n\t\tcreateListing(\"Microsoft\", \"15010 NE 36th, St.; Redmond, WA\", \"United States\", 90200454, 2338271, 182, 20000);\n\t\tcreateListing(\"Facebook\", \"1 Hacker Way; Menlo Park\", \"United States\", 724002, 66093, 203, 10000);\n\t}\n\n\tfunction createListing(string memory _companyName, string memory _companyMailingAddress, string memory _country, int _earnings,\n\t\tint _netIncome, int _stockPrice, int _numShares) public {\n\t\t// require that the bank is a verified bank\n\t\trequire(isVerified() == true);\n\n\t\t// require none of the fields to be blank\n\t\tbytes memory companyNameBytes = bytes(_companyName);\n\t\tbytes memory companyMailingAddressBytes = bytes(_companyMailingAddress);\n\t\tbytes memory countryBytes = bytes(_country);\n\n\t\trequire(companyNameBytes.length != 0);\n\t\trequire(companyMailingAddressBytes.length != 0);\n\t\trequire(countryBytes.length != 0);\n\t\trequire(_earnings > 0);\n\t\trequire(_netIncome > 0);\n\t\trequire(_stockPrice > 0);\n\t\trequire(_numShares > 0);\n\n\t\t// create new listing\n\t\tlistingCount ++;\n\t\tlistings[listingCount] = Listing(listingCount, false, false, false, false, _companyName, _companyMailingAddress, _country,\n\t\t\t\t\t\t\t\t\t\tuint(_earnings), uint(_netIncome), uint(_stockPrice), uint(_numShares));\n\n\t\temit listingAddedComplete(listingCount, _companyName, banks[msg.sender].bankName);\n\t}\n\n\tfunction approveListing(uint _companyId) public {\n\t\t// require that the bank is a verified bank while also \n\t\trequire(isVerified() == true);\n\n\t\t// get the company listing based on given Id\n\t\tListing memory _listing = listings[_companyId];\n\n\t\t// change the approval to true on the bank\n\t\tif (msg.sender == bankAddresses[0]) { _listing.dbApproved = true; } else\n\t\tif (msg.sender == bankAddresses[1]) { _listing.ecbApproved = true; } else\n\t\t{ _listing.nlApproved = true; }\n\n\t\t// check if all banks have approved, if yes then the listing is approved completely\n\t\tif (_listing.dbApproved == true && _listing.ecbApproved == true && _listing.nlApproved == true) {\n\t\t\t_listing.approved = true;\n\t\t\temit listingApprovalComplete(_companyId, _listing.companyName, _listing.approved);\n\t\t}\n\t    \n\t    // save listing to blockchain\n\t    listings[_companyId] = _listing;\n\t    emit bankApprovalComplete(_companyId, _listing.companyName, _listing.dbApproved, banks[msg.sender].bankName, msg.sender);\n\t}\n\n\tfunction isVerified() public returns(bool) {\n\t\tbool isVerifiedBool = false;\n\t\tif (banks[msg.sender].bankId != 0) {\n\t\t\tisVerifiedBool = true;\n\t\t}\n\t\treturn isVerifiedBool;\n\t}\n}\n\n\n\n\n\n",
  "sourcePath": "/Users/henryvuong/Desktop/eth-deutsche-boerse/contracts/CompanyListing.sol",
  "compiler": {
    "name": "solc",
    "version": "0.5.0+commit.1d4f565a.Emscripten.clang"
  },
  "schemaVersion": "3.0.1",
  "updatedAt": "2020-02-18T13:31:04.390Z",
  "devdoc": {
    "methods": {}
  },
  "userdoc": {
    "methods": {}
  }
}