{
  "contractName": "CompanyListing",
  "abi": [
    {
      "constant": true,
      "inputs": [
        {
          "name": "",
          "type": "uint256"
        }
      ],
      "name": "banks",
      "outputs": [
        {
          "name": "bankId",
          "type": "uint256"
        },
        {
          "name": "bankAddress",
          "type": "address"
        },
        {
          "name": "bankName",
          "type": "string"
        }
      ],
      "payable": false,
      "stateMutability": "view",
      "type": "function",
      "signature": "0x0085ae2b"
    },
    {
      "constant": true,
      "inputs": [
        {
          "name": "",
          "type": "uint256"
        }
      ],
      "name": "bankNames",
      "outputs": [
        {
          "name": "",
          "type": "string"
        }
      ],
      "payable": false,
      "stateMutability": "view",
      "type": "function",
      "signature": "0x4ecaef25"
    },
    {
      "constant": true,
      "inputs": [
        {
          "name": "",
          "type": "uint256"
        }
      ],
      "name": "bankAddresses",
      "outputs": [
        {
          "name": "",
          "type": "address"
        }
      ],
      "payable": false,
      "stateMutability": "view",
      "type": "function",
      "signature": "0x74bccc3c"
    },
    {
      "constant": true,
      "inputs": [],
      "name": "listingCount",
      "outputs": [
        {
          "name": "",
          "type": "uint256"
        }
      ],
      "payable": false,
      "stateMutability": "view",
      "type": "function",
      "signature": "0xa9b07c26"
    },
    {
      "constant": true,
      "inputs": [
        {
          "name": "",
          "type": "uint256"
        }
      ],
      "name": "listings",
      "outputs": [
        {
          "name": "listingId",
          "type": "uint256"
        },
        {
          "name": "approved",
          "type": "bool"
        },
        {
          "name": "dbApproved",
          "type": "bool"
        },
        {
          "name": "ecbApproved",
          "type": "bool"
        },
        {
          "name": "nlApproved",
          "type": "bool"
        },
        {
          "name": "companyName",
          "type": "string"
        },
        {
          "name": "companyMailingAddress",
          "type": "string"
        },
        {
          "name": "country",
          "type": "string"
        },
        {
          "name": "earnings",
          "type": "uint256"
        },
        {
          "name": "netIncome",
          "type": "uint256"
        },
        {
          "name": "stockPrice",
          "type": "uint256"
        },
        {
          "name": "numShares",
          "type": "uint256"
        }
      ],
      "payable": false,
      "stateMutability": "view",
      "type": "function",
      "signature": "0xde74e57b"
    },
    {
      "constant": true,
      "inputs": [],
      "name": "bankCount",
      "outputs": [
        {
          "name": "",
          "type": "uint256"
        }
      ],
      "payable": false,
      "stateMutability": "view",
      "type": "function",
      "signature": "0xf879eb57"
    },
    {
      "inputs": [],
      "payable": false,
      "stateMutability": "nonpayable",
      "type": "constructor",
      "signature": "constructor"
    },
    {
      "anonymous": false,
      "inputs": [
        {
          "indexed": false,
          "name": "companyId",
          "type": "uint256"
        },
        {
          "indexed": false,
          "name": "companyName",
          "type": "string"
        },
        {
          "indexed": false,
          "name": "completed",
          "type": "bool"
        },
        {
          "indexed": false,
          "name": "bankName",
          "type": "string"
        },
        {
          "indexed": false,
          "name": "bankAddress",
          "type": "address"
        }
      ],
      "name": "bankApprovalComplete",
      "type": "event",
      "signature": "0xaa8cb4841c2a28171d394d115010901714654dc08130642c579172f443b5ff56"
    },
    {
      "anonymous": false,
      "inputs": [
        {
          "indexed": false,
          "name": "companyId",
          "type": "uint256"
        },
        {
          "indexed": false,
          "name": "companyName",
          "type": "string"
        },
        {
          "indexed": false,
          "name": "completed",
          "type": "bool"
        }
      ],
      "name": "listingApprovalComplete",
      "type": "event",
      "signature": "0x371a4af84e37754bf38ab3860405f713a95d61268802ee7c3a0ff715d9c352d6"
    },
    {
      "constant": false,
      "inputs": [
        {
          "name": "_companyName",
          "type": "string"
        },
        {
          "name": "_companyMailingAddress",
          "type": "string"
        },
        {
          "name": "_country",
          "type": "string"
        },
        {
          "name": "_earnings",
          "type": "uint256"
        },
        {
          "name": "_netIncome",
          "type": "uint256"
        },
        {
          "name": "_stockPrice",
          "type": "uint256"
        },
        {
          "name": "_numShares",
          "type": "uint256"
        }
      ],
      "name": "createListing",
      "outputs": [],
      "payable": false,
      "stateMutability": "nonpayable",
      "type": "function",
      "signature": "0x54d49195"
    },
    {
      "constant": false,
      "inputs": [
        {
          "name": "_companyId",
          "type": "uint256"
        }
      ],
      "name": "approveListing",
      "outputs": [],
      "payable": false,
      "stateMutability": "nonpayable",
      "type": "function",
      "signature": "0xbfe2760a"
    }
  ],
  "bytecode": "0x600080805560015560e06040527332bae766f067e46ccf08560c47ccf25c4c214065608090815273935bb1908af1e5c3cece5248336277873e10615960a05273989e12aa643cca35156e47a38c6ae95c6c4c9c2d60c0526200006690600290600362000622565b506040805160a081018252600d606082019081527f44657574736368652042616e6b000000000000000000000000000000000000006080830152815281518083018352601581527f4575726f7065616e2043656e7472616c2042616e6b00000000000000000000006020828101919091528083019190915282518084018452601781527f4e6f72646465757473636865204c616e64657362616e6b00000000000000000091810191909152918101919091526200012790600390816200068c565b503480156200013557600080fd5b5060005b6002548110156200029b5760018054810190819055604080516060810190915290815260028054602083019190849081106200017157fe5b60009182526020918290200154600160a060020a03168252600380549290910191849081106200019d57fe5b600091825260209182902001805460408051601f60026000196101006001871615020190941693909304928301859004850281018501909152818152928301828280156200022f5780601f1062000203576101008083540402835291602001916200022f565b820191906000526020600020905b8154815290600101906020018083116200021157829003601f168201915b5050509190925250506001805460009081526004602090815260409182902084518155848201519381018054600160a060020a031916600160a060020a03909516949094179093559083015180516200028f9260028501920190620006ec565b50505060010162000139565b506200038b6040805190810160405280600681526020017f476f6f676c650000000000000000000000000000000000000000000000000000815250606060405190810160405280603481526020017f3136303020416d70686974686561747265205061726b7761793b204d6f756e7481526020017f61696e20566965772c2043616c69666f726e69610000000000000000000000008152506040805190810160405280600781526020017f416d657269636100000000000000000000000000000000000000000000000000815250624c4b40623d0900608961138862000480640100000000026401000000009004565b6200047a6040805190810160405280600681526020017f416d617a6f6e0000000000000000000000000000000000000000000000000000815250606060405190810160405280602881526020017f496e632034313020546572727920417665204e3b2053656174746c652c20576181526020017f7368696e67746f6e0000000000000000000000000000000000000000000000008152506040805190810160405280600781526020017f416d657269636100000000000000000000000000000000000000000000000000815250627d21066241a0b06058612ee062000480640100000000026401000000009004565b62000827565b60008081548092919060010191905055506101806040519081016040528060005481526020016000151581526020016000151581526020016000151581526020016000151581526020018881526020018781526020018681526020018581526020018481526020018381526020018281525060056000805481526020019081526020016000206000820151816000015560208201518160010160006101000a81548160ff02191690831515021790555060408201518160010160016101000a81548160ff02191690831515021790555060608201518160010160026101000a81548160ff02191690831515021790555060808201518160010160036101000a81548160ff02191690831515021790555060a0820151816002019080519060200190620005ae929190620006ec565b5060c08201518051620005cc916003840191602090910190620006ec565b5060e08201518051620005ea916004840191602090910190620006ec565b506101008201516005820155610120820151600682015561014082015160078201556101609091015160089091015550505050505050565b8280548282559060005260206000209081019282156200067a579160200282015b828111156200067a5782518254600160a060020a031916600160a060020a0390911617825560209092019160019091019062000643565b50620006889291506200076d565b5090565b828054828255906000526020600020908101928215620006de579160200282015b82811115620006de5782518051620006cd918491602090910190620006ec565b5091602001919060010190620006ad565b506200068892915062000797565b828054600181600116156101000203166002900490600052602060002090601f016020900481019282601f106200072f57805160ff19168380011785556200075f565b828001600101855582156200075f579182015b828111156200075f57825182559160200191906001019062000742565b5062000688929150620007bf565b6200079491905b8082111562000688578054600160a060020a031916815560010162000774565b90565b6200079491905b8082111562000688576000620007b58282620007dc565b506001016200079e565b6200079491905b80821115620006885760008155600101620007c6565b50805460018160011615610100020316600290046000825580601f1062000804575062000824565b601f016020900490600052602060002090810190620008249190620007bf565b50565b6112e580620008376000396000f3fe60806040526004361061008c5763ffffffff7c010000000000000000000000000000000000000000000000000000000060003504166285ae2b81146100915780634ecaef251461015357806354d49195146101f257806374bccc3c146103c6578063a9b07c261461040c578063bfe2760a14610433578063de74e57b1461045d578063f879eb571461061a575b600080fd5b34801561009d57600080fd5b506100bb600480360360208110156100b457600080fd5b503561062f565b6040518084815260200183600160a060020a0316600160a060020a0316815260200180602001828103825283818151815260200191508051906020019080838360005b838110156101165781810151838201526020016100fe565b50505050905090810190601f1680156101435780820380516001836020036101000a031916815260200191505b5094505050505060405180910390f35b34801561015f57600080fd5b5061017d6004803603602081101561017657600080fd5b50356106e5565b6040805160208082528351818301528351919283929083019185019080838360005b838110156101b757818101518382015260200161019f565b50505050905090810190601f1680156101e45780820380516001836020036101000a031916815260200191505b509250505060405180910390f35b3480156101fe57600080fd5b506103c4600480360360e081101561021557600080fd5b81019060208101813564010000000081111561023057600080fd5b82018360208201111561024257600080fd5b8035906020019184600183028401116401000000008311171561026457600080fd5b91908080601f01602080910402602001604051908101604052809392919081815260200183838082843760009201919091525092959493602081019350359150506401000000008111156102b757600080fd5b8201836020820111156102c957600080fd5b803590602001918460018302840111640100000000831117156102eb57600080fd5b91908080601f016020809104026020016040519081016040528093929190818152602001838380828437600092019190915250929594936020810193503591505064010000000081111561033e57600080fd5b82018360208201111561035057600080fd5b8035906020019184600183028401116401000000008311171561037257600080fd5b91908080601f016020809104026020016040519081016040528093929190818152602001838380828437600092019190915250929550508235935050506020810135906040810135906060013561078c565b005b3480156103d257600080fd5b506103f0600480360360208110156103e957600080fd5b5035610928565b60408051600160a060020a039092168252519081900360200190f35b34801561041857600080fd5b50610421610950565b60408051918252519081900360200190f35b34801561043f57600080fd5b506103c46004803603602081101561045657600080fd5b5035610956565b34801561046957600080fd5b506104876004803603602081101561048057600080fd5b5035610faa565b604051808d81526020018c1515151581526020018b1515151581526020018a1515151581526020018915151515815260200180602001806020018060200188815260200187815260200186815260200185815260200184810384528b818151815260200191508051906020019080838360005b838110156105125781810151838201526020016104fa565b50505050905090810190601f16801561053f5780820380516001836020036101000a031916815260200191505b5084810383528a5181528a516020918201918c019080838360005b8381101561057257818101518382015260200161055a565b50505050905090810190601f16801561059f5780820380516001836020036101000a031916815260200191505b5084810382528951815289516020918201918b019080838360005b838110156105d25781810151838201526020016105ba565b50505050905090810190601f1680156105ff5780820380516001836020036101000a031916815260200191505b509f5050505050505050505050505050505060405180910390f35b34801561062657600080fd5b506104216111ae565b60046020908152600091825260409182902080546001808301546002808501805488516101009582161595909502600019011691909104601f81018790048702840187019097528683529295600160a060020a03909116949192918301828280156106db5780601f106106b0576101008083540402835291602001916106db565b820191906000526020600020905b8154815290600101906020018083116106be57829003601f168201915b5050505050905083565b60038054829081106106f357fe5b600091825260209182902001805460408051601f60026000196101006001871615020190941693909304928301859004850281018501909152818152935090918301828280156107845780601f1061075957610100808354040283529160200191610784565b820191906000526020600020905b81548152906001019060200180831161076757829003601f168201915b505050505081565b60008081548092919060010191905055506101806040519081016040528060005481526020016000151581526020016000151581526020016000151581526020016000151581526020018881526020018781526020018681526020018581526020018481526020018381526020018281525060056000805481526020019081526020016000206000820151816000015560208201518160010160006101000a81548160ff02191690831515021790555060408201518160010160016101000a81548160ff02191690831515021790555060608201518160010160026101000a81548160ff02191690831515021790555060808201518160010160036101000a81548160ff02191690831515021790555060a08201518160020190805190602001906108b89291906111b4565b5060c082015180516108d49160038401916020909101906111b4565b5060e082015180516108f09160048401916020909101906111b4565b506101008201516005820155610120820151600682015561014082015160078201556101609091015160089091015550505050505050565b600280548290811061093657fe5b600091825260209091200154600160a060020a0316905081565b60005481565b600080805b6002548110156109a157600280543391908390811061097657fe5b600091825260209091200154600160a060020a0316141561099957600192508091505b60010161095b565b506001821515146109b157600080fd5b6109b9611232565b6000848152600560209081526040918290208251610180810184528154815260018083015460ff808216151584870152610100808304821615158589015262010000830482161515606086015263010000009092041615156080840152600280850180548851948116159093026000190190921604601f81018690048602830186019096528582529194929360a086019391929190830182828015610a9f5780601f10610a7457610100808354040283529160200191610a9f565b820191906000526020600020905b815481529060010190602001808311610a8257829003601f168201915b505050918352505060038201805460408051602060026001851615610100026000190190941693909304601f8101849004840282018401909252818152938201939291830182828015610b335780601f10610b0857610100808354040283529160200191610b33565b820191906000526020600020905b815481529060010190602001808311610b1657829003601f168201915b505050918352505060048201805460408051602060026001851615610100026000190190941693909304601f8101849004840282018401909252818152938201939291830182828015610bc75780601f10610b9c57610100808354040283529160200191610bc7565b820191906000526020600020905b815481529060010190602001808311610baa57829003601f168201915b5050505050815260200160058201548152602001600682015481526020016007820154815260200160088201548152505090508160001415610c0f5760016040820152610c2c565b8160011415610c245760016060820152610c2c565b600160808201525b604081015115156001148015610c485750606081015115156001145b8015610c5a5750608081015115156001145b15610d19576001602080830182905260a083015160408051888152908101849052606081840181815283519183019190915282517f371a4af84e37754bf38ab3860405f713a95d61268802ee7c3a0ff715d9c352d6958a9590939291608084019186019080838360005b83811015610cdc578181015183820152602001610cc4565b50505050905090810190601f168015610d095780820380516001836020036101000a031916815260200191505b5094505050505060405180910390a15b6000848152600560209081526040918290208351815583820151600182018054948601516060870151608088015160ff199097169315159390931761ff001916610100911515919091021762ff0000191662010000921515929092029190911763ff00000019166301000000941515949094029390931790925560a08301518051849392610dae9260028501929101906111b4565b5060c08201518051610dca9160038401916020909101906111b4565b5060e08201518051610de69160048401916020909101906111b4565b5061010082015181600501556101208201518160060155610140820151816007015561016082015181600801559050507faa8cb4841c2a28171d394d115010901714654dc08130642c579172f443b5ff56848260a001518360400151600386815481101515610e5157fe5b90600052602060002001600287815481101515610e6a57fe5b9060005260206000200160009054906101000a9004600160a060020a03166040518086815260200180602001851515151581526020018060200184600160a060020a0316600160a060020a03168152602001838103835287818151815260200191508051906020019080838360005b83811015610ef1578181015183820152602001610ed9565b50505050905090810190601f168015610f1e5780820380516001836020036101000a031916815260200191505b50838103825285546002600019610100600184161502019091160480825260209091019086908015610f915780601f10610f6657610100808354040283529160200191610f91565b820191906000526020600020905b815481529060010190602001808311610f7457829003601f168201915b505097505050505050505060405180910390a150505050565b60056020908152600091825260409182902080546001808301546002808501805488516101009582161586026000190190911692909204601f8101889004880283018801909852878252939660ff808416979484048116966201000085048216966301000000909504909116949093919083018282801561106c5780601f106110415761010080835404028352916020019161106c565b820191906000526020600020905b81548152906001019060200180831161104f57829003601f168201915b5050505060038301805460408051602060026001851615610100026000190190941693909304601f81018490048402820184019092528181529495949350908301828280156110fc5780601f106110d1576101008083540402835291602001916110fc565b820191906000526020600020905b8154815290600101906020018083116110df57829003601f168201915b5050505060048301805460408051602060026001851615610100026000190190941693909304601f810184900484028201840190925281815294959493509083018282801561118c5780601f106111615761010080835404028352916020019161118c565b820191906000526020600020905b81548152906001019060200180831161116f57829003601f168201915b505050505090806005015490806006015490806007015490806008015490508c565b60015481565b828054600181600116156101000203166002900490600052602060002090601f016020900481019282601f106111f557805160ff1916838001178555611222565b82800160010185558215611222579182015b82811115611222578251825591602001919060010190611207565b5061122e92915061129c565b5090565b6101806040519081016040528060008152602001600015158152602001600015158152602001600015158152602001600015158152602001606081526020016060815260200160608152602001600081526020016000815260200160008152602001600081525090565b6112b691905b8082111561122e57600081556001016112a2565b9056fea165627a7a72305820dc03111f083da907ffcc527f34d0f7f9a2d92790de8c57acc439b680ababc44f0029",
  "source": "pragma solidity ^0.5.0;\n\ncontract CompanyListing {\n\tuint public listingCount = 0;\n\tuint public bankCount = 0;\n\t// addresses and names of banks\n\taddress[] public bankAddresses = [0x32bAe766f067E46ccF08560C47cCf25C4C214065,\n\t\t\t\t\t\t\t\t \t 0x935Bb1908AF1E5c3CEcE5248336277873E106159,\n\t\t\t\t\t\t\t\t \t 0x989e12AA643CcA35156E47A38C6Ae95c6c4c9c2d];\n\tstring[] public bankNames = [\"Deutsche Bank\", \"European Central Bank\", \"Norddeutsche Landesbank\"];\n\tmapping(uint => Bank) public banks;\n\n\tmapping(uint => Listing) public listings;\n\n\tstruct Bank {\n\t\tuint bankId;\n\t\taddress bankAddress;\n\t\tstring bankName;\n\t}\n\n\tstruct Listing {\n\t\tuint listingId;\n\t\tbool approved;\n\t\tbool dbApproved;\n\t\tbool ecbApproved;\n\t\tbool nlApproved;\n\n\t\t// basic company information\n\t\tstring companyName;\n\t\tstring companyMailingAddress;\n\t\tstring country;\n\n\t\t// basic company financials\n\t\tuint earnings;\n\t\tuint netIncome;\n\n\t\t// basic IPO information\n\t\tuint stockPrice;\n\t\tuint numShares;\n\t}\n\n\tevent bankApprovalComplete(\n\t    uint companyId,\n\t    string companyName,\n\t    bool completed,\n\t    string bankName,\n\t    address bankAddress\n  \t);\n\n  \tevent listingApprovalComplete(\n  \t\tuint companyId,\n\t    string companyName,\n\t    bool completed\n  \t);\n\n\tconstructor() public {\n\t\t// set bank mapping\n\t\tfor (uint i = 0; i < bankAddresses.length; i++) {\n\t\t\tbankCount ++;\n\t\t\tbanks[bankCount] = Bank(bankCount, bankAddresses[i], bankNames[i]);\n\t\t}\n\n\t\t// bootstrap with seed data\n\t\tcreateListing(\"Google\", \"1600 Amphitheatre Parkway; Mountain View, California\", \"America\", 5000000, 4000000, 137, 5000);\n\t\tcreateListing(\"Amazon\", \"Inc 410 Terry Ave N; Seattle, Washington\", \"America\", 8200454, 4300976, 88, 12000);\n\t}\n\n\tfunction createListing(string memory _companyName, string memory _companyMailingAddress, string memory _country, uint _earnings,\n\t\tuint _netIncome, uint _stockPrice, uint _numShares) public {\n\t\tlistingCount ++;\n\n\n\t\t// create new listing\n\t\tlistings[listingCount] = Listing(listingCount, false, false, false, false, _companyName, _companyMailingAddress, _country, _earnings, _netIncome, _stockPrice,\n\t\t\t_numShares);\n\t}\n\n\tfunction approveListing(uint _companyId) public {\n\t\t\n\t\tbool isVerified = false;\n\t\tuint indexBankAddress = 0;\n\t\tfor (uint i = 0; i < bankAddresses.length; i++) {\n\t\t\tif (bankAddresses[i] == msg.sender) {\n\t\t\t\tisVerified = true;\n\t\t\t\tindexBankAddress = i;\n\t\t\t}\n\t\t}\n\t\trequire(isVerified == true);\n\n\t\tListing memory _listing = listings[_companyId];\n\n\t\t// change the boolean on the correct bank\n\t\tif (indexBankAddress == 0) { _listing.dbApproved = true; } else\n\t\tif (indexBankAddress == 1) { _listing.ecbApproved = true; } else\n\t\t{ _listing.nlApproved = true; }\n\n\t\tif (_listing.dbApproved == true && _listing.ecbApproved == true && _listing.nlApproved == true) {\n\t\t\t_listing.approved = true;\n\t\t\temit listingApprovalComplete(_companyId, _listing.companyName, _listing.approved);\n\t\t}\n\t    \n\t    listings[_companyId] = _listing;\n\t    emit bankApprovalComplete(_companyId, _listing.companyName, _listing.dbApproved, bankNames[indexBankAddress], bankAddresses[indexBankAddress]);\n\t}\n}\n\n\n\n\n\n",
  "sourcePath": "/Users/henryvuong/Desktop/eth-deutsche-boerse/contracts/CompanyListing.sol",
  "compiler": {
    "name": "solc",
    "version": "0.5.0+commit.1d4f565a.Emscripten.clang"
  },
  "schemaVersion": "3.0.1",
  "updatedAt": "2020-02-16T14:13:23.977Z",
  "devdoc": {
    "methods": {}
  },
  "userdoc": {
    "methods": {}
  }
}