{
  "contractName": "CompanyListing",
  "abi": [
    {
      "constant": true,
      "inputs": [],
      "name": "listingCount",
      "outputs": [
        {
          "name": "",
          "type": "uint256"
        }
      ],
      "payable": false,
      "stateMutability": "view",
      "type": "function",
      "signature": "0xa9b07c26"
    }
  ],
  "bytecode": "0x6080604052348015600f57600080fd5b50609e8061001e6000396000f3fe608060405260043610603f576000357c0100000000000000000000000000000000000000000000000000000000900463ffffffff168063a9b07c26146044575b600080fd5b348015604f57600080fd5b506056606c565b6040518082815260200191505060405180910390f35b6000548156fea165627a7a7230582011826dc0f7be963f192337715858e6412374e812065fdc15bb05ae7b43baab4e0029",
  "source": "pragma solidity ^0.5.0;\n\ncontract CompanyListing {\n\tuint public listingCount;\n\n\t// struct Listing {\n\t// \tuint id;\n\n\t// \t// basic company information\n\t// \tstring companyName;\n\t// \tstring address;\n\t// \tstring country;\n\n\t// \t// basic company financials\n\t\t\n\n\t// }\n}",
  "sourcePath": "/Users/henryvuong/Desktop/eth-deutsche-boerse/contracts/CompanyListing.sol",
  "compiler": {
    "name": "solc",
    "version": "0.5.0+commit.1d4f565a.Emscripten.clang"
  },
  "schemaVersion": "3.0.1",
  "updatedAt": "2020-02-14T17:22:01.881Z",
  "devdoc": {
    "methods": {}
  },
  "userdoc": {
    "methods": {}
  }
}