{
  "contractName": "CompanyListing",
  "abi": [
    {
      "constant": true,
      "inputs": [
        {
          "name": "",
          "type": "uint256"
        }
      ],
      "name": "bankAddresses",
      "outputs": [
        {
          "name": "",
          "type": "address"
        }
      ],
      "payable": false,
      "stateMutability": "view",
      "type": "function",
      "signature": "0x74bccc3c"
    },
    {
      "constant": true,
      "inputs": [],
      "name": "listingCount",
      "outputs": [
        {
          "name": "",
          "type": "uint256"
        }
      ],
      "payable": false,
      "stateMutability": "view",
      "type": "function",
      "signature": "0xa9b07c26"
    },
    {
      "constant": true,
      "inputs": [
        {
          "name": "",
          "type": "uint256"
        }
      ],
      "name": "listings",
      "outputs": [
        {
          "name": "listingId",
          "type": "uint256"
        },
        {
          "name": "approved",
          "type": "bool"
        },
        {
          "name": "dbApproved",
          "type": "bool"
        },
        {
          "name": "ecbApproved",
          "type": "bool"
        },
        {
          "name": "nlbApproved",
          "type": "bool"
        },
        {
          "name": "companyName",
          "type": "string"
        },
        {
          "name": "companyAddress",
          "type": "string"
        },
        {
          "name": "country",
          "type": "string"
        },
        {
          "name": "earnings",
          "type": "uint256"
        },
        {
          "name": "netIncome",
          "type": "uint256"
        },
        {
          "name": "stockPrice",
          "type": "uint256"
        },
        {
          "name": "numShares",
          "type": "uint256"
        }
      ],
      "payable": false,
      "stateMutability": "view",
      "type": "function",
      "signature": "0xde74e57b"
    },
    {
      "inputs": [],
      "payable": false,
      "stateMutability": "nonpayable",
      "type": "constructor",
      "signature": "constructor"
    },
    {
      "constant": false,
      "inputs": [
        {
          "name": "_companyName",
          "type": "string"
        },
        {
          "name": "_companyAddress",
          "type": "string"
        },
        {
          "name": "_country",
          "type": "string"
        },
        {
          "name": "_earnings",
          "type": "uint256"
        },
        {
          "name": "_netIncome",
          "type": "uint256"
        },
        {
          "name": "_stockPrice",
          "type": "uint256"
        },
        {
          "name": "_numShares",
          "type": "uint256"
        }
      ],
      "name": "createListing",
      "outputs": [],
      "payable": false,
      "stateMutability": "nonpayable",
      "type": "function",
      "signature": "0x54d49195"
    }
  ],
  "bytecode": "0x6000805560e06040527332bae766f067e46ccf08560c47ccf25c4c214065608090815273935bb1908af1e5c3cece5248336277873e10615960a05273989e12aa643cca35156e47a38c6ae95c6c4c9c2d60c05262000062906001906003620003f7565b503480156200007057600080fd5b50620001606040805190810160405280600681526020017f476f6f676c650000000000000000000000000000000000000000000000000000815250606060405190810160405280603481526020017f3136303020416d70686974686561747265205061726b7761793b204d6f756e7481526020017f61696e20566965772c2043616c69666f726e69610000000000000000000000008152506040805190810160405280600781526020017f416d657269636100000000000000000000000000000000000000000000000000815250624c4b40623d0900608961138862000255640100000000026401000000009004565b6200024f6040805190810160405280600681526020017f416d617a6f6e0000000000000000000000000000000000000000000000000000815250606060405190810160405280602881526020017f496e632034313020546572727920417665204e3b2053656174746c652c20576181526020017f7368696e67746f6e0000000000000000000000000000000000000000000000008152506040805190810160405280600781526020017f416d657269636100000000000000000000000000000000000000000000000000815250627d21066241a0b06058612ee062000255640100000000026401000000009004565b62000529565b60008081548092919060010191905055506101806040519081016040528060005481526020016000151581526020016000151581526020016000151581526020016000151581526020018881526020018781526020018681526020018581526020018481526020018381526020018281525060026000805481526020019081526020016000206000820151816000015560208201518160010160006101000a81548160ff02191690831515021790555060408201518160010160016101000a81548160ff02191690831515021790555060608201518160010160026101000a81548160ff02191690831515021790555060808201518160010160036101000a81548160ff02191690831515021790555060a08201518160020190805190602001906200038392919062000461565b5060c08201518051620003a191600384019160209091019062000461565b5060e08201518051620003bf91600484019160209091019062000461565b506101008201516005820155610120820151600682015561014082015160078201556101609091015160089091015550505050505050565b8280548282559060005260206000209081019282156200044f579160200282015b828111156200044f5782518254600160a060020a031916600160a060020a0390911617825560209092019160019091019062000418565b506200045d929150620004e2565b5090565b828054600181600116156101000203166002900490600052602060002090601f016020900481019282601f10620004a457805160ff1916838001178555620004d4565b82800160010185558215620004d4579182015b82811115620004d4578251825591602001919060010190620004b7565b506200045d9291506200050c565b6200050991905b808211156200045d578054600160a060020a0319168155600101620004e9565b90565b6200050991905b808211156200045d576000815560010162000513565b61091280620005396000396000f3fe6080604052600436106100615763ffffffff7c010000000000000000000000000000000000000000000000000000000060003504166354d49195811461006657806374bccc3c1461023a578063a9b07c261461028d578063de74e57b146102b4575b600080fd5b34801561007257600080fd5b50610238600480360360e081101561008957600080fd5b8101906020810181356401000000008111156100a457600080fd5b8201836020820111156100b657600080fd5b803590602001918460018302840111640100000000831117156100d857600080fd5b91908080601f016020809104026020016040519081016040528093929190818152602001838380828437600092019190915250929594936020810193503591505064010000000081111561012b57600080fd5b82018360208201111561013d57600080fd5b8035906020019184600183028401116401000000008311171561015f57600080fd5b91908080601f01602080910402602001604051908101604052809392919081815260200183838082843760009201919091525092959493602081019350359150506401000000008111156101b257600080fd5b8201836020820111156101c457600080fd5b803590602001918460018302840111640100000000831117156101e657600080fd5b91908080601f0160208091040260200160405190810160405280939291908181526020018383808284376000920191909152509295505082359350505060208101359060408101359060600135610471565b005b34801561024657600080fd5b506102646004803603602081101561025d57600080fd5b503561060d565b6040805173ffffffffffffffffffffffffffffffffffffffff9092168252519081900360200190f35b34801561029957600080fd5b506102a2610642565b60408051918252519081900360200190f35b3480156102c057600080fd5b506102de600480360360208110156102d757600080fd5b5035610648565b604051808d81526020018c1515151581526020018b1515151581526020018a1515151581526020018915151515815260200180602001806020018060200188815260200187815260200186815260200185815260200184810384528b818151815260200191508051906020019080838360005b83811015610369578181015183820152602001610351565b50505050905090810190601f1680156103965780820380516001836020036101000a031916815260200191505b5084810383528a5181528a516020918201918c019080838360005b838110156103c95781810151838201526020016103b1565b50505050905090810190601f1680156103f65780820380516001836020036101000a031916815260200191505b5084810382528951815289516020918201918b019080838360005b83811015610429578181015183820152602001610411565b50505050905090810190601f1680156104565780820380516001836020036101000a031916815260200191505b509f5050505050505050505050505050505060405180910390f35b60008081548092919060010191905055506101806040519081016040528060005481526020016000151581526020016000151581526020016000151581526020016000151581526020018881526020018781526020018681526020018581526020018481526020018381526020018281525060026000805481526020019081526020016000206000820151816000015560208201518160010160006101000a81548160ff02191690831515021790555060408201518160010160016101000a81548160ff02191690831515021790555060608201518160010160026101000a81548160ff02191690831515021790555060808201518160010160036101000a81548160ff02191690831515021790555060a082015181600201908051906020019061059d92919061084b565b5060c082015180516105b991600384019160209091019061084b565b5060e082015180516105d591600484019160209091019061084b565b506101008201516005820155610120820151600682015561014082015160078201556101609091015160089091015550505050505050565b600180548290811061061b57fe5b60009182526020909120015473ffffffffffffffffffffffffffffffffffffffff16905081565b60005481565b6002602081815260009283526040928390208054600180830154838601805488516101009482161585026000190190911697909704601f8101879004870288018701909852878752929660ff8083169793830481169662010000840482169663010000009094049091169492939291908301828280156107095780601f106106de57610100808354040283529160200191610709565b820191906000526020600020905b8154815290600101906020018083116106ec57829003601f168201915b5050505060038301805460408051602060026001851615610100026000190190941693909304601f81018490048402820184019092528181529495949350908301828280156107995780601f1061076e57610100808354040283529160200191610799565b820191906000526020600020905b81548152906001019060200180831161077c57829003601f168201915b5050505060048301805460408051602060026001851615610100026000190190941693909304601f81018490048402820184019092528181529495949350908301828280156108295780601f106107fe57610100808354040283529160200191610829565b820191906000526020600020905b81548152906001019060200180831161080c57829003601f168201915b505050505090806005015490806006015490806007015490806008015490508c565b828054600181600116156101000203166002900490600052602060002090601f016020900481019282601f1061088c57805160ff19168380011785556108b9565b828001600101855582156108b9579182015b828111156108b957825182559160200191906001019061089e565b506108c59291506108c9565b5090565b6108e391905b808211156108c557600081556001016108cf565b9056fea165627a7a7230582056a92bb92c80aee7803892c0fc6476684aae6c86956782465aede104de57c1be0029",
  "source": "pragma solidity ^0.5.0;\n\ncontract CompanyListing {\n\tuint public listingCount = 0;\n\t// addresses of banks\n\taddress[] public bankAddresses = [0x32bAe766f067E46ccF08560C47cCf25C4C214065,\n\t\t\t\t\t\t\t\t \t 0x935Bb1908AF1E5c3CEcE5248336277873E106159,\n\t\t\t\t\t\t\t\t \t 0x989e12AA643CcA35156E47A38C6Ae95c6c4c9c2d];\n\n\tstruct Listing {\n\t\tuint listingId;\n\t\tbool approved;\n\t\tbool dbApproved;\n\t\tbool ecbApproved;\n\t\tbool nlbApproved;\n\n\t\t// basic company information\n\t\tstring companyName;\n\t\tstring companyAddress;\n\t\tstring country;\n\n\t\t// basic company financials\n\t\tuint earnings;\n\t\tuint netIncome;\n\n\t\t// basic IPO information\n\t\tuint stockPrice;\n\t\tuint numShares;\n\t}\n\n\tmapping(uint => Listing) public listings;\n\n\tconstructor() public {\n\t\t// bootstrap with seed data\n\t\tcreateListing(\"Google\", \"1600 Amphitheatre Parkway; Mountain View, California\", \"America\", 5000000, 4000000, 137, 5000);\n\t\tcreateListing(\"Amazon\", \"Inc 410 Terry Ave N; Seattle, Washington\", \"America\", 8200454, 4300976, 88, 12000);\n\t}\n\n\tfunction createListing(string memory _companyName, string memory _companyAddress, string memory _country, uint _earnings,\n\t\tuint _netIncome, uint _stockPrice, uint _numShares) public {\n\t\tlistingCount ++;\n\n\n\t\t// create new listing\n\t\tlistings[listingCount] = Listing(listingCount, false, false, false, false, _companyName, _companyAddress, _country, _earnings, _netIncome, _stockPrice,\n\t\t\t_numShares);\n\t}\n}",
  "sourcePath": "/Users/henryvuong/Desktop/eth-deutsche-boerse/contracts/CompanyListing.sol",
  "compiler": {
    "name": "solc",
    "version": "0.5.0+commit.1d4f565a.Emscripten.clang"
  },
  "schemaVersion": "3.0.1",
  "updatedAt": "2020-02-15T14:06:50.543Z",
  "devdoc": {
    "methods": {}
  },
  "userdoc": {
    "methods": {}
  }
}