{
  "contractName": "CompanyListing",
  "abi": [
    {
      "constant": true,
      "inputs": [],
      "name": "listingCount",
      "outputs": [
        {
          "name": "",
          "type": "uint256"
        }
      ],
      "payable": false,
      "stateMutability": "view",
      "type": "function",
      "signature": "0xa9b07c26"
    },
    {
      "constant": true,
      "inputs": [
        {
          "name": "",
          "type": "uint256"
        }
      ],
      "name": "listings",
      "outputs": [
        {
          "name": "id",
          "type": "uint256"
        },
        {
          "name": "approved",
          "type": "bool"
        },
        {
          "name": "companyName",
          "type": "string"
        }
      ],
      "payable": false,
      "stateMutability": "view",
      "type": "function",
      "signature": "0xde74e57b"
    },
    {
      "inputs": [],
      "payable": false,
      "stateMutability": "nonpayable",
      "type": "constructor",
      "signature": "constructor"
    },
    {
      "constant": false,
      "inputs": [
        {
          "name": "_companyName",
          "type": "string"
        }
      ],
      "name": "createListing",
      "outputs": [],
      "payable": false,
      "stateMutability": "nonpayable",
      "type": "function",
      "signature": "0x61245a38"
    }
  ],
  "bytecode": "0x60806040526000805534801561001457600080fd5b5060408051808201909152600681527f476f6f676c650000000000000000000000000000000000000000000000000000602082015261005b90640100000000610060810204565b610163565b60008054600190810180835560408051606081018252828152602080820186815282840188815294875285825292909520815181559151938201805460ff19169415159490941790935590518051929391926100c292600285019201906100c8565b50505050565b828054600181600116156101000203166002900490600052602060002090601f016020900481019282601f1061010957805160ff1916838001178555610136565b82800160010185558215610136579182015b8281111561013657825182559160200191906001019061011b565b50610142929150610146565b5090565b61016091905b80821115610142576000815560010161014c565b90565b6103cd806101726000396000f3fe6080604052600436106100565763ffffffff7c010000000000000000000000000000000000000000000000000000000060003504166361245a38811461005b578063a9b07c2614610110578063de74e57b14610137575b600080fd5b34801561006757600080fd5b5061010e6004803603602081101561007e57600080fd5b81019060208101813564010000000081111561009957600080fd5b8201836020820111156100ab57600080fd5b803590602001918460018302840111640100000000831117156100cd57600080fd5b91908080601f0160208091040260200160405190810160405280939291908181526020018383808284376000920191909152509295506101eb945050505050565b005b34801561011c57600080fd5b50610125610253565b60408051918252519081900360200190f35b34801561014357600080fd5b506101616004803603602081101561015a57600080fd5b5035610259565b604051808481526020018315151515815260200180602001828103825283818151815260200191508051906020019080838360005b838110156101ae578181015183820152602001610196565b50505050905090810190601f1680156101db5780820380516001836020036101000a031916815260200191505b5094505050505060405180910390f35b60008054600190810180835560408051606081018252828152602080820186815282840188815294875285825292909520815181559151938201805460ff191694151594909417909355905180519293919261024d9260028501920190610306565b50505050565b60005481565b6001602081815260009283526040928390208054818401546002808401805488516101009882161598909802600019011691909104601f8101869004860287018601909752868652919560ff9091169492938301828280156102fc5780601f106102d1576101008083540402835291602001916102fc565b820191906000526020600020905b8154815290600101906020018083116102df57829003601f168201915b5050505050905083565b828054600181600116156101000203166002900490600052602060002090601f016020900481019282601f1061034757805160ff1916838001178555610374565b82800160010185558215610374579182015b82811115610374578251825591602001919060010190610359565b50610380929150610384565b5090565b61039e91905b80821115610380576000815560010161038a565b9056fea165627a7a72305820ffbcf405a60a41610a0dbc206fab13d3e9a814c7e4b8b9a34035ec0f2811abd70029",
  "source": "pragma solidity ^0.5.0;\n\ncontract CompanyListing {\n\tuint public listingCount = 0;\n\n\tstruct Listing {\n\t\tuint id;\n\t\tbool approved;\n\n\t\t// basic company information\n\t\tstring companyName;\n\t\t// string address;\n\t\t// string country;\n\n\t\t// basic company financials\n\n\t\t// basic IPO information\n\t\t// uint stockPrice;\n\t\t// uint sharesNum;\n\t}\n\n\tmapping(uint => Listing) public listings;\n\n\tconstructor() public {\n\t\tcreateListing(\"Google\");\n\t}\n\n\tfunction createListing(string memory _companyName) public {\n\t\tlistingCount ++;\n\t\tlistings[listingCount] = Listing(listingCount, false, _companyName);\n\t}\n}",
  "sourcePath": "/Users/henryvuong/Desktop/eth-deutsche-boerse/contracts/CompanyListing.sol",
  "compiler": {
    "name": "solc",
    "version": "0.5.0+commit.1d4f565a.Emscripten.clang"
  },
  "schemaVersion": "3.0.1",
  "updatedAt": "2020-02-14T17:53:42.410Z",
  "devdoc": {
    "methods": {}
  },
  "userdoc": {
    "methods": {}
  }
}