{
  "contractName": "CompanyListing",
  "abi": [
    {
      "constant": true,
      "inputs": [
        {
          "name": "",
          "type": "uint256"
        }
      ],
      "name": "banks",
      "outputs": [
        {
          "name": "bankId",
          "type": "uint256"
        },
        {
          "name": "bankAddress",
          "type": "address"
        },
        {
          "name": "bankName",
          "type": "string"
        }
      ],
      "payable": false,
      "stateMutability": "view",
      "type": "function",
      "signature": "0x0085ae2b"
    },
    {
      "constant": true,
      "inputs": [
        {
          "name": "",
          "type": "uint256"
        }
      ],
      "name": "bankNames",
      "outputs": [
        {
          "name": "",
          "type": "string"
        }
      ],
      "payable": false,
      "stateMutability": "view",
      "type": "function",
      "signature": "0x4ecaef25"
    },
    {
      "constant": true,
      "inputs": [
        {
          "name": "",
          "type": "uint256"
        }
      ],
      "name": "bankAddresses",
      "outputs": [
        {
          "name": "",
          "type": "address"
        }
      ],
      "payable": false,
      "stateMutability": "view",
      "type": "function",
      "signature": "0x74bccc3c"
    },
    {
      "constant": true,
      "inputs": [],
      "name": "listingCount",
      "outputs": [
        {
          "name": "",
          "type": "uint256"
        }
      ],
      "payable": false,
      "stateMutability": "view",
      "type": "function",
      "signature": "0xa9b07c26"
    },
    {
      "constant": true,
      "inputs": [
        {
          "name": "",
          "type": "uint256"
        }
      ],
      "name": "listings",
      "outputs": [
        {
          "name": "listingId",
          "type": "uint256"
        },
        {
          "name": "approved",
          "type": "bool"
        },
        {
          "name": "dbApproved",
          "type": "bool"
        },
        {
          "name": "ecbApproved",
          "type": "bool"
        },
        {
          "name": "nlApproved",
          "type": "bool"
        },
        {
          "name": "companyName",
          "type": "string"
        },
        {
          "name": "companyMailingAddress",
          "type": "string"
        },
        {
          "name": "country",
          "type": "string"
        },
        {
          "name": "earnings",
          "type": "uint256"
        },
        {
          "name": "netIncome",
          "type": "uint256"
        },
        {
          "name": "stockPrice",
          "type": "uint256"
        },
        {
          "name": "numShares",
          "type": "uint256"
        }
      ],
      "payable": false,
      "stateMutability": "view",
      "type": "function",
      "signature": "0xde74e57b"
    },
    {
      "constant": true,
      "inputs": [],
      "name": "bankCount",
      "outputs": [
        {
          "name": "",
          "type": "uint256"
        }
      ],
      "payable": false,
      "stateMutability": "view",
      "type": "function",
      "signature": "0xf879eb57"
    },
    {
      "inputs": [],
      "payable": false,
      "stateMutability": "nonpayable",
      "type": "constructor",
      "signature": "constructor"
    },
    {
      "anonymous": false,
      "inputs": [
        {
          "indexed": false,
          "name": "companyId",
          "type": "uint256"
        },
        {
          "indexed": false,
          "name": "companyName",
          "type": "string"
        },
        {
          "indexed": false,
          "name": "completed",
          "type": "bool"
        },
        {
          "indexed": false,
          "name": "bankName",
          "type": "string"
        },
        {
          "indexed": false,
          "name": "bankAddress",
          "type": "address"
        }
      ],
      "name": "bankApprovalComplete",
      "type": "event",
      "signature": "0xaa8cb4841c2a28171d394d115010901714654dc08130642c579172f443b5ff56"
    },
    {
      "anonymous": false,
      "inputs": [
        {
          "indexed": false,
          "name": "companyId",
          "type": "uint256"
        },
        {
          "indexed": false,
          "name": "companyName",
          "type": "string"
        },
        {
          "indexed": false,
          "name": "completed",
          "type": "bool"
        }
      ],
      "name": "listingApprovalComplete",
      "type": "event",
      "signature": "0x371a4af84e37754bf38ab3860405f713a95d61268802ee7c3a0ff715d9c352d6"
    },
    {
      "anonymous": false,
      "inputs": [
        {
          "indexed": false,
          "name": "companyId",
          "type": "uint256"
        },
        {
          "indexed": false,
          "name": "companyName",
          "type": "string"
        },
        {
          "indexed": false,
          "name": "bankUnderwriter",
          "type": "string"
        }
      ],
      "name": "listingAddedComplete",
      "type": "event",
      "signature": "0x15ade30a3c1a89726d6e9675a23e800504dadf432ba54645780836510518765b"
    },
    {
      "constant": false,
      "inputs": [
        {
          "name": "_companyName",
          "type": "string"
        },
        {
          "name": "_companyMailingAddress",
          "type": "string"
        },
        {
          "name": "_country",
          "type": "string"
        },
        {
          "name": "_earnings",
          "type": "int256"
        },
        {
          "name": "_netIncome",
          "type": "int256"
        },
        {
          "name": "_stockPrice",
          "type": "int256"
        },
        {
          "name": "_numShares",
          "type": "int256"
        }
      ],
      "name": "createListing",
      "outputs": [],
      "payable": false,
      "stateMutability": "nonpayable",
      "type": "function",
      "signature": "0x4168b3c5"
    },
    {
      "constant": false,
      "inputs": [
        {
          "name": "_companyId",
          "type": "uint256"
        }
      ],
      "name": "approveListing",
      "outputs": [],
      "payable": false,
      "stateMutability": "nonpayable",
      "type": "function",
      "signature": "0xbfe2760a"
    }
  ],
  "bytecode": "0x600080805560015560e06040527332bae766f067e46ccf08560c47ccf25c4c214065608090815273935bb1908af1e5c3cece5248336277873e10615960a05273989e12aa643cca35156e47a38c6ae95c6c4c9c2d60c05262000066906004906003620009c2565b506040805160a081018252600d606082019081527f44657574736368652042616e6b000000000000000000000000000000000000006080830152815281518083018352601581527f4575726f7065616e2043656e7472616c2042616e6b00000000000000000000006020828101919091528083019190915282518084018452601781527f4e6f72646465757473636865204c616e64657362616e6b00000000000000000091810191909152918101919091526200012890600590600362000a2c565b503480156200013657600080fd5b5060005b6004548110156200029e5760018054810190819055604080516060810190915290815260048054602083019190849081106200017257fe5b60009182526020918290200154600160a060020a03168252600580549290910191849081106200019e57fe5b600091825260209182902001805460408051601f6002600019610100600187161502019094169390930492830185900485028101850190915281815292830182828015620002305780601f10620002045761010080835404028352916020019162000230565b820191906000526020600020905b8154815290600101906020018083116200021257829003601f168201915b5050509190925250506001805460009081526002602081815260409283902085518155858201519481018054600160a060020a031916600160a060020a0390961695909517909455918401518051620002929392850192919091019062000a8c565b5050506001016200013a565b506200038e6040805190810160405280600681526020017f476f6f676c650000000000000000000000000000000000000000000000000000815250606060405190810160405280603481526020017f3136303020416d70686974686561747265205061726b7761793b204d6f756e7481526020017f61696e20566965772c2043616c69666f726e69610000000000000000000000008152506040805190810160405280600d81526020017f556e697465642053746174657300000000000000000000000000000000000000815250624c4b40623d0900608961138862000614640100000000026401000000009004565b6200047d6040805190810160405280600681526020017f416d617a6f6e0000000000000000000000000000000000000000000000000000815250606060405190810160405280602881526020017f496e632034313020546572727920417665204e3b2053656174746c652c20576181526020017f7368696e67746f6e0000000000000000000000000000000000000000000000008152506040805190810160405280600d81526020017f556e697465642053746174657300000000000000000000000000000000000000815250627d21066241a0b06058612ee062000614640100000000026401000000009004565b620005466040805190810160405280600981526020017f4d6963726f736f667400000000000000000000000000000000000000000000008152506040805190810160405280601f81526020017f3135303130204e4520333674682c2053742e3b205265646d6f6e642c205741008152506040805190810160405280600d81526020017f556e69746564205374617465730000000000000000000000000000000000000081525063056059866223addf60b6614e2062000614640100000000026401000000009004565b6200060e6040805190810160405280600881526020017f46616365626f6f6b0000000000000000000000000000000000000000000000008152506040805190810160405280601881526020017f31204861636b6572205761793b204d656e6c6f205061726b00000000000000008152506040805190810160405280600d81526020017f556e697465642053746174657300000000000000000000000000000000000000815250620b0c226201022d60cb61271062000614640100000000026401000000009004565b62000bc7565b600080805b600454811015620006635760048054339190839081106200063657fe5b600091825260209091200154600160a060020a031614156200065a57600192508091505b60010162000619565b506001821515146200067457600080fd5b885189908990899015156200068857600080fd5b815115156200069657600080fd5b80511515620006a457600080fd5b60008913620006b257600080fd5b60008813620006c057600080fd5b60008713620006ce57600080fd5b60008613620006dc57600080fd5b60008081548092919060010191905055506101806040519081016040528060005481526020016000151581526020016000151581526020016000151581526020016000151581526020018d81526020018c81526020018b81526020018a81526020018981526020018881526020018781525060036000805481526020019081526020016000206000820151816000015560208201518160010160006101000a81548160ff02191690831515021790555060408201518160010160016101000a81548160ff02191690831515021790555060608201518160010160026101000a81548160ff02191690831515021790555060808201518160010160036101000a81548160ff02191690831515021790555060a08201518160020190805190602001906200080a92919062000a8c565b5060c082015180516200082891600384019160209091019062000a8c565b5060e082015180516200084691600484019160209091019062000a8c565b5061010082015181600501556101208201518160060155610140820151816007015561016082015181600801559050507f15ade30a3c1a89726d6e9675a23e800504dadf432ba54645780836510518765b6000548d600587815481101515620008ab57fe5b90600052602060002001604051808481526020018060200180602001838103835285818151815260200191508051906020019080838360005b83811015620008fe578181015183820152602001620008e4565b50505050905090810190601f1680156200092c5780820380516001836020036101000a031916815260200191505b50838103825284546002600019610100600184161502019091160480825260209091019085908015620009a35780601f106200097757610100808354040283529160200191620009a3565b820191906000526020600020905b8154815290600101906020018083116200098557829003601f168201915b50509550505050505060405180910390a1505050505050505050505050565b82805482825590600052602060002090810192821562000a1a579160200282015b8281111562000a1a5782518254600160a060020a031916600160a060020a03909116178255602090920191600190910190620009e3565b5062000a2892915062000b0d565b5090565b82805482825590600052602060002090810192821562000a7e579160200282015b8281111562000a7e578251805162000a6d91849160209091019062000a8c565b509160200191906001019062000a4d565b5062000a2892915062000b37565b828054600181600116156101000203166002900490600052602060002090601f016020900481019282601f1062000acf57805160ff191683800117855562000aff565b8280016001018555821562000aff579182015b8281111562000aff57825182559160200191906001019062000ae2565b5062000a2892915062000b5f565b62000b3491905b8082111562000a28578054600160a060020a031916815560010162000b14565b90565b62000b3491905b8082111562000a2857600062000b55828262000b7c565b5060010162000b3e565b62000b3491905b8082111562000a28576000815560010162000b66565b50805460018160011615610100020316600290046000825580601f1062000ba4575062000bc4565b601f01602090049060005260206000209081019062000bc4919062000b5f565b50565b6114dd8062000bd76000396000f3fe60806040526004361061008c5763ffffffff7c010000000000000000000000000000000000000000000000000000000060003504166285ae2b81146100915780634168b3c5146101535780634ecaef251461032757806374bccc3c146103c6578063a9b07c261461040c578063bfe2760a14610433578063de74e57b1461045d578063f879eb571461061a575b600080fd5b34801561009d57600080fd5b506100bb600480360360208110156100b457600080fd5b503561062f565b6040518084815260200183600160a060020a0316600160a060020a0316815260200180602001828103825283818151815260200191508051906020019080838360005b838110156101165781810151838201526020016100fe565b50505050905090810190601f1680156101435780820380516001836020036101000a031916815260200191505b5094505050505060405180910390f35b34801561015f57600080fd5b50610325600480360360e081101561017657600080fd5b81019060208101813564010000000081111561019157600080fd5b8201836020820111156101a357600080fd5b803590602001918460018302840111640100000000831117156101c557600080fd5b91908080601f016020809104026020016040519081016040528093929190818152602001838380828437600092019190915250929594936020810193503591505064010000000081111561021857600080fd5b82018360208201111561022a57600080fd5b8035906020019184600183028401116401000000008311171561024c57600080fd5b91908080601f016020809104026020016040519081016040528093929190818152602001838380828437600092019190915250929594936020810193503591505064010000000081111561029f57600080fd5b8201836020820111156102b157600080fd5b803590602001918460018302840111640100000000831117156102d357600080fd5b91908080601f01602080910402602001604051908101604052809392919081815260200183838082843760009201919091525092955050823593505050602081013590604081013590606001356106e5565b005b34801561033357600080fd5b506103516004803603602081101561034a57600080fd5b5035610a79565b6040805160208082528351818301528351919283929083019185019080838360005b8381101561038b578181015183820152602001610373565b50505050905090810190601f1680156103b85780820380516001836020036101000a031916815260200191505b509250505060405180910390f35b3480156103d257600080fd5b506103f0600480360360208110156103e957600080fd5b5035610b20565b60408051600160a060020a039092168252519081900360200190f35b34801561041857600080fd5b50610421610b48565b60408051918252519081900360200190f35b34801561043f57600080fd5b506103256004803603602081101561045657600080fd5b5035610b4e565b34801561046957600080fd5b506104876004803603602081101561048057600080fd5b50356111a2565b604051808d81526020018c1515151581526020018b1515151581526020018a1515151581526020018915151515815260200180602001806020018060200188815260200187815260200186815260200185815260200184810384528b818151815260200191508051906020019080838360005b838110156105125781810151838201526020016104fa565b50505050905090810190601f16801561053f5780820380516001836020036101000a031916815260200191505b5084810383528a5181528a516020918201918c019080838360005b8381101561057257818101518382015260200161055a565b50505050905090810190601f16801561059f5780820380516001836020036101000a031916815260200191505b5084810382528951815289516020918201918b019080838360005b838110156105d25781810151838201526020016105ba565b50505050905090810190601f1680156105ff5780820380516001836020036101000a031916815260200191505b509f5050505050505050505050505050505060405180910390f35b34801561062657600080fd5b506104216113a6565b600260208181526000928352604092839020805460018083015483860180548851601f600019958316156101000295909501909116979097049283018690048602870186019097528186529195600160a060020a039092169492938301828280156106db5780601f106106b0576101008083540402835291602001916106db565b820191906000526020600020905b8154815290600101906020018083116106be57829003601f168201915b5050505050905083565b600080805b60045481101561073057600480543391908390811061070557fe5b600091825260209091200154600160a060020a0316141561072857600192508091505b6001016106ea565b5060018215151461074057600080fd5b8851899089908990151561075357600080fd5b8151151561076057600080fd5b8051151561076d57600080fd5b6000891361077a57600080fd5b6000881361078757600080fd5b6000871361079457600080fd5b600086136107a157600080fd5b60008081548092919060010191905055506101806040519081016040528060005481526020016000151581526020016000151581526020016000151581526020016000151581526020018d81526020018c81526020018b81526020018a81526020018981526020018881526020018781525060036000805481526020019081526020016000206000820151816000015560208201518160010160006101000a81548160ff02191690831515021790555060408201518160010160016101000a81548160ff02191690831515021790555060608201518160010160026101000a81548160ff02191690831515021790555060808201518160010160036101000a81548160ff02191690831515021790555060a08201518160020190805190602001906108cd9291906113ac565b5060c082015180516108e99160038401916020909101906113ac565b5060e082015180516109059160048401916020909101906113ac565b5061010082015181600501556101208201518160060155610140820151816007015561016082015181600801559050507f15ade30a3c1a89726d6e9675a23e800504dadf432ba54645780836510518765b6000548d60058781548110151561096957fe5b90600052602060002001604051808481526020018060200180602001838103835285818151815260200191508051906020019080838360005b838110156109ba5781810151838201526020016109a2565b50505050905090810190601f1680156109e75780820380516001836020036101000a031916815260200191505b50838103825284546002600019610100600184161502019091160480825260209091019085908015610a5a5780601f10610a2f57610100808354040283529160200191610a5a565b820191906000526020600020905b815481529060010190602001808311610a3d57829003601f168201915b50509550505050505060405180910390a1505050505050505050505050565b6005805482908110610a8757fe5b600091825260209182902001805460408051601f6002600019610100600187161502019094169390930492830185900485028101850190915281815293509091830182828015610b185780601f10610aed57610100808354040283529160200191610b18565b820191906000526020600020905b815481529060010190602001808311610afb57829003601f168201915b505050505081565b6004805482908110610b2e57fe5b600091825260209091200154600160a060020a0316905081565b60005481565b600080805b600454811015610b99576004805433919083908110610b6e57fe5b600091825260209091200154600160a060020a03161415610b9157600192508091505b600101610b53565b50600182151514610ba957600080fd5b610bb161142a565b6000848152600360209081526040918290208251610180810184528154815260018083015460ff808216151584870152610100808304821615158589015262010000830482161515606086015263010000009092041615156080840152600280850180548851948116159093026000190190921604601f81018690048602830186019096528582529194929360a086019391929190830182828015610c975780601f10610c6c57610100808354040283529160200191610c97565b820191906000526020600020905b815481529060010190602001808311610c7a57829003601f168201915b505050918352505060038201805460408051602060026001851615610100026000190190941693909304601f8101849004840282018401909252818152938201939291830182828015610d2b5780601f10610d0057610100808354040283529160200191610d2b565b820191906000526020600020905b815481529060010190602001808311610d0e57829003601f168201915b505050918352505060048201805460408051602060026001851615610100026000190190941693909304601f8101849004840282018401909252818152938201939291830182828015610dbf5780601f10610d9457610100808354040283529160200191610dbf565b820191906000526020600020905b815481529060010190602001808311610da257829003601f168201915b5050505050815260200160058201548152602001600682015481526020016007820154815260200160088201548152505090508160001415610e075760016040820152610e24565b8160011415610e1c5760016060820152610e24565b600160808201525b604081015115156001148015610e405750606081015115156001145b8015610e525750608081015115156001145b15610f11576001602080830182905260a083015160408051888152908101849052606081840181815283519183019190915282517f371a4af84e37754bf38ab3860405f713a95d61268802ee7c3a0ff715d9c352d6958a9590939291608084019186019080838360005b83811015610ed4578181015183820152602001610ebc565b50505050905090810190601f168015610f015780820380516001836020036101000a031916815260200191505b5094505050505060405180910390a15b6000848152600360209081526040918290208351815583820151600182018054948601516060870151608088015160ff199097169315159390931761ff001916610100911515919091021762ff0000191662010000921515929092029190911763ff00000019166301000000941515949094029390931790925560a08301518051849392610fa69260028501929101906113ac565b5060c08201518051610fc29160038401916020909101906113ac565b5060e08201518051610fde9160048401916020909101906113ac565b5061010082015181600501556101208201518160060155610140820151816007015561016082015181600801559050507faa8cb4841c2a28171d394d115010901714654dc08130642c579172f443b5ff56848260a00151836040015160058681548110151561104957fe5b9060005260206000200160048781548110151561106257fe5b9060005260206000200160009054906101000a9004600160a060020a03166040518086815260200180602001851515151581526020018060200184600160a060020a0316600160a060020a03168152602001838103835287818151815260200191508051906020019080838360005b838110156110e95781810151838201526020016110d1565b50505050905090810190601f1680156111165780820380516001836020036101000a031916815260200191505b508381038252855460026000196101006001841615020190911604808252602090910190869080156111895780601f1061115e57610100808354040283529160200191611189565b820191906000526020600020905b81548152906001019060200180831161116c57829003601f168201915b505097505050505050505060405180910390a150505050565b60036020908152600091825260409182902080546001808301546002808501805488516101009582161586026000190190911692909204601f8101889004880283018801909852878252939660ff80841697948404811696620100008504821696630100000090950490911694909391908301828280156112645780601f1061123957610100808354040283529160200191611264565b820191906000526020600020905b81548152906001019060200180831161124757829003601f168201915b5050505060038301805460408051602060026001851615610100026000190190941693909304601f81018490048402820184019092528181529495949350908301828280156112f45780601f106112c9576101008083540402835291602001916112f4565b820191906000526020600020905b8154815290600101906020018083116112d757829003601f168201915b5050505060048301805460408051602060026001851615610100026000190190941693909304601f81018490048402820184019092528181529495949350908301828280156113845780601f1061135957610100808354040283529160200191611384565b820191906000526020600020905b81548152906001019060200180831161136757829003601f168201915b505050505090806005015490806006015490806007015490806008015490508c565b60015481565b828054600181600116156101000203166002900490600052602060002090601f016020900481019282601f106113ed57805160ff191683800117855561141a565b8280016001018555821561141a579182015b8281111561141a5782518255916020019190600101906113ff565b50611426929150611494565b5090565b6101806040519081016040528060008152602001600015158152602001600015158152602001600015158152602001600015158152602001606081526020016060815260200160608152602001600081526020016000815260200160008152602001600081525090565b6114ae91905b80821115611426576000815560010161149a565b9056fea165627a7a723058201232698fbd585d623cf217f895ac08621da0221ba4d45eac43f8d3c5f02c2df50029",
  "source": "pragma solidity ^0.5.0;\n\n/*\n\tThe purpose of this contract is to automate the approval process of company listing for a stock exchange.\n\tCreated on 2/14/2020 by Henry Vuong\n\n\tMade for the WHU course Intro to Blockchain\n\n\tRun using the Truffle framework, Ganache, and MetaMask\n*/\n\ncontract CompanyListing {\n\t// indexes for mappings\n\tuint public listingCount = 0;\n\tuint public bankCount = 0;\n\tmapping(uint => Bank) public banks;\n\tmapping(uint => Listing) public listings;\n\n\t// addresses and names of banks\n\taddress[] public bankAddresses = [0x32bAe766f067E46ccF08560C47cCf25C4C214065,\n\t\t\t\t\t\t\t\t \t 0x935Bb1908AF1E5c3CEcE5248336277873E106159,\n\t\t\t\t\t\t\t\t \t 0x989e12AA643CcA35156E47A38C6Ae95c6c4c9c2d];\n\tstring[] public bankNames = [\"Deutsche Bank\", \"European Central Bank\", \"Norddeutsche Landesbank\"];\n\n\tstruct Bank {\n\t\tuint bankId;\n\t\taddress bankAddress;\n\t\tstring bankName;\n\t}\n\n\t// represents a company listing\n\tstruct Listing {\n\t\tuint listingId;\n\t\tbool approved;\n\t\tbool dbApproved;\n\t\tbool ecbApproved;\n\t\tbool nlApproved;\n\n\t\t// basic company information\n\t\tstring companyName;\n\t\tstring companyMailingAddress;\n\t\tstring country;\n\n\t\t// basic company financials\n\t\tuint earnings;\n\t\tuint netIncome;\n\n\t\t// basic IPO information\n\t\tuint stockPrice;\n\t\tuint numShares;\n\t}\n\n\tevent bankApprovalComplete(\n\t    uint companyId,\n\t    string companyName,\n\t    bool completed,\n\t    string bankName,\n\t    address bankAddress\n  \t);\n\n  \tevent listingApprovalComplete(\n  \t\tuint companyId,\n\t    string companyName,\n\t    bool completed\n  \t);\n\n  \tevent listingAddedComplete(\n  \t\tuint companyId,\n\t    string companyName,\n\t    string bankUnderwriter\n  \t);\n\n\tconstructor() public {\n\t\t// set bank mapping\n\t\tfor (uint i = 0; i < bankAddresses.length; i++) {\n\t\t\tbankCount ++;\n\t\t\tbanks[bankCount] = Bank(bankCount, bankAddresses[i], bankNames[i]);\n\t\t}\n\n\t\t// bootstrap with seed data\n\t\tcreateListing(\"Google\", \"1600 Amphitheatre Parkway; Mountain View, California\", \"United States\", 5000000, 4000000, 137, 5000);\n\t\tcreateListing(\"Amazon\", \"Inc 410 Terry Ave N; Seattle, Washington\", \"United States\", 8200454, 4300976, 88, 12000);\n\t\tcreateListing(\"Microsoft\", \"15010 NE 36th, St.; Redmond, WA\", \"United States\", 90200454, 2338271, 182, 20000);\n\t\tcreateListing(\"Facebook\", \"1 Hacker Way; Menlo Park\", \"United States\", 724002, 66093, 203, 10000);\n\t}\n\n\tfunction createListing(string memory _companyName, string memory _companyMailingAddress, string memory _country, int _earnings,\n\t\tint _netIncome, int _stockPrice, int _numShares) public {\n\t\t// require that the bank is a verified bank\n\t\tbool isVerified = false;\n\t\tuint indexBankAddress = 0;\n\t\tfor (uint i = 0; i < bankAddresses.length; i++) {\n\t\t\tif (bankAddresses[i] == msg.sender) {\n\t\t\t\tisVerified = true;\n\t\t\t\tindexBankAddress = i;\n\t\t\t}\n\t\t}\n\t\trequire(isVerified == true);\n\n\t\t// require none of the fields to be blank\n\t\tbytes memory companyNameBytes = bytes(_companyName);\n\t\tbytes memory companyMailingAddressBytes = bytes(_companyMailingAddress);\n\t\tbytes memory countryBytes = bytes(_country);\n\n\t\trequire(companyNameBytes.length != 0);\n\t\trequire(companyMailingAddressBytes.length != 0);\n\t\trequire(countryBytes.length != 0);\n\t\trequire(_earnings > 0);\n\t\trequire(_netIncome > 0);\n\t\trequire(_stockPrice > 0);\n\t\trequire(_numShares > 0);\n\n\t\t// create new listing\n\t\tlistingCount ++;\n\t\tlistings[listingCount] = Listing(listingCount, false, false, false, false, _companyName, _companyMailingAddress, _country,\n\t\t\t\t\t\t\t\t\t\tuint(_earnings), uint(_netIncome), uint(_stockPrice), uint(_numShares));\n\n\t\temit listingAddedComplete(listingCount, _companyName, bankNames[indexBankAddress]);\n\t}\n\n\tfunction approveListing(uint _companyId) public {\n\t\t// require that the bank is a verified bank while also \n\t\tbool isVerified = false;\n\t\tuint indexBankAddress = 0;\n\t\tfor (uint i = 0; i < bankAddresses.length; i++) {\n\t\t\tif (bankAddresses[i] == msg.sender) {\n\t\t\t\tisVerified = true;\n\t\t\t\tindexBankAddress = i;\n\t\t\t}\n\t\t}\n\t\trequire(isVerified == true);\n\n\t\t// get the company listing based on given Id\n\t\tListing memory _listing = listings[_companyId];\n\n\t\t// change the approval to true on the bank\n\t\tif (indexBankAddress == 0) { _listing.dbApproved = true; } else\n\t\tif (indexBankAddress == 1) { _listing.ecbApproved = true; } else\n\t\t{ _listing.nlApproved = true; }\n\n\t\t// check if all banks have approved, if yes then the listing is approved completely\n\t\tif (_listing.dbApproved == true && _listing.ecbApproved == true && _listing.nlApproved == true) {\n\t\t\t_listing.approved = true;\n\t\t\temit listingApprovalComplete(_companyId, _listing.companyName, _listing.approved);\n\t\t}\n\t    \n\t    // save listing to blockchain\n\t    listings[_companyId] = _listing;\n\t    emit bankApprovalComplete(_companyId, _listing.companyName, _listing.dbApproved, bankNames[indexBankAddress], bankAddresses[indexBankAddress]);\n\t}\n}\n\n\n\n\n\n",
  "sourcePath": "/Users/henryvuong/Desktop/eth-deutsche-boerse/contracts/CompanyListing.sol",
  "compiler": {
    "name": "solc",
    "version": "0.5.0+commit.1d4f565a.Emscripten.clang"
  },
  "schemaVersion": "3.0.1",
  "updatedAt": "2020-02-16T18:20:35.055Z",
  "devdoc": {
    "methods": {}
  },
  "userdoc": {
    "methods": {}
  }
}